{
  "_format": "hh-sol-artifact-1",
  "contractName": "CardEscrow",
  "sourceName": "contracts/CardEscrow.sol",
  "abi": [
    {
      "inputs": [
        {
          "internalType": "address",
          "name": "_usdc",
          "type": "address"
        },
        {
          "internalType": "address",
          "name": "_platform",
          "type": "address"
        }
      ],
      "stateMutability": "nonpayable",
      "type": "constructor"
    },
    {
      "anonymous": false,
      "inputs": [
        {
          "indexed": true,
          "internalType": "uint256",
          "name": "tradeId",
          "type": "uint256"
        },
        {
          "indexed": false,
          "internalType": "uint256",
          "name": "sellerAmount",
          "type": "uint256"
        },
        {
          "indexed": false,
          "internalType": "uint256",
          "name": "feeAmount",
          "type": "uint256"
        }
      ],
      "name": "TradeComplete",
      "type": "event"
    },
    {
      "anonymous": false,
      "inputs": [
        {
          "indexed": true,
          "internalType": "uint256",
          "name": "tradeId",
          "type": "uint256"
        }
      ],
      "name": "TradeDisputed",
      "type": "event"
    },
    {
      "anonymous": false,
      "inputs": [
        {
          "indexed": true,
          "internalType": "uint256",
          "name": "tradeId",
          "type": "uint256"
        },
        {
          "indexed": false,
          "internalType": "address",
          "name": "buyer",
          "type": "address"
        },
        {
          "indexed": false,
          "internalType": "address",
          "name": "seller",
          "type": "address"
        },
        {
          "indexed": false,
          "internalType": "uint256",
          "name": "amount",
          "type": "uint256"
        },
        {
          "indexed": false,
          "internalType": "string",
          "name": "cardName",
          "type": "string"
        }
      ],
      "name": "TradeFunded",
      "type": "event"
    },
    {
      "anonymous": false,
      "inputs": [
        {
          "indexed": true,
          "internalType": "uint256",
          "name": "tradeId",
          "type": "uint256"
        }
      ],
      "name": "TradeRefunded",
      "type": "event"
    },
    {
      "anonymous": false,
      "inputs": [
        {
          "indexed": true,
          "internalType": "uint256",
          "name": "tradeId",
          "type": "uint256"
        },
        {
          "indexed": false,
          "internalType": "string",
          "name": "txNote",
          "type": "string"
        }
      ],
      "name": "TradeShipped",
      "type": "event"
    },
    {
      "inputs": [],
      "name": "ESCROW_WINDOW",
      "outputs": [
        {
          "internalType": "uint256",
          "name": "",
          "type": "uint256"
        }
      ],
      "stateMutability": "view",
      "type": "function"
    },
    {
      "inputs": [],
      "name": "FEE_BPS",
      "outputs": [
        {
          "internalType": "uint256",
          "name": "",
          "type": "uint256"
        }
      ],
      "stateMutability": "view",
      "type": "function"
    },
    {
      "inputs": [
        {
          "internalType": "uint256",
          "name": "tradeId",
          "type": "uint256"
        }
      ],
      "name": "autoRelease",
      "outputs": [],
      "stateMutability": "nonpayable",
      "type": "function"
    },
    {
      "inputs": [
        {
          "internalType": "uint256",
          "name": "tradeId",
          "type": "uint256"
        }
      ],
      "name": "claimRefund",
      "outputs": [],
      "stateMutability": "nonpayable",
      "type": "function"
    },
    {
      "inputs": [
        {
          "internalType": "uint256",
          "name": "tradeId",
          "type": "uint256"
        }
      ],
      "name": "confirmReceipt",
      "outputs": [],
      "stateMutability": "nonpayable",
      "type": "function"
    },
    {
      "inputs": [
        {
          "internalType": "uint256",
          "name": "tradeId",
          "type": "uint256"
        },
        {
          "internalType": "string",
          "name": "txNote",
          "type": "string"
        }
      ],
      "name": "confirmShipment",
      "outputs": [],
      "stateMutability": "nonpayable",
      "type": "function"
    },
    {
      "inputs": [
        {
          "internalType": "address",
          "name": "seller",
          "type": "address"
        },
        {
          "internalType": "uint256",
          "name": "amountUSDC",
          "type": "uint256"
        },
        {
          "internalType": "string",
          "name": "cardName",
          "type": "string"
        },
        {
          "internalType": "string",
          "name": "listingId",
          "type": "string"
        }
      ],
      "name": "createTrade",
      "outputs": [
        {
          "internalType": "uint256",
          "name": "tradeId",
          "type": "uint256"
        }
      ],
      "stateMutability": "nonpayable",
      "type": "function"
    },
    {
      "inputs": [
        {
          "internalType": "uint256",
          "name": "tradeId",
          "type": "uint256"
        }
      ],
      "name": "getTrade",
      "outputs": [
        {
          "components": [
            {
              "internalType": "address",
              "name": "buyer",
              "type": "address"
            },
            {
              "internalType": "address",
              "name": "seller",
              "type": "address"
            },
            {
              "internalType": "uint256",
              "name": "amountUSDC",
              "type": "uint256"
            },
            {
              "internalType": "string",
              "name": "cardName",
              "type": "string"
            },
            {
              "internalType": "string",
              "name": "listingId",
              "type": "string"
            },
            {
              "internalType": "uint256",
              "name": "fundedAt",
              "type": "uint256"
            },
            {
              "internalType": "uint256",
              "name": "deadline",
              "type": "uint256"
            },
            {
              "internalType": "enum CardEscrow.State",
              "name": "state",
              "type": "uint8"
            },
            {
              "internalType": "string",
              "name": "txNote",
              "type": "string"
            }
          ],
          "internalType": "struct CardEscrow.Trade",
          "name": "",
          "type": "tuple"
        }
      ],
      "stateMutability": "view",
      "type": "function"
    },
    {
      "inputs": [],
      "name": "getTradeCount",
      "outputs": [
        {
          "internalType": "uint256",
          "name": "",
          "type": "uint256"
        }
      ],
      "stateMutability": "view",
      "type": "function"
    },
    {
      "inputs": [
        {
          "internalType": "uint256",
          "name": "tradeId",
          "type": "uint256"
        }
      ],
      "name": "openDispute",
      "outputs": [],
      "stateMutability": "nonpayable",
      "type": "function"
    },
    {
      "inputs": [],
      "name": "platform",
      "outputs": [
        {
          "internalType": "address",
          "name": "",
          "type": "address"
        }
      ],
      "stateMutability": "view",
      "type": "function"
    },
    {
      "inputs": [
        {
          "internalType": "uint256",
          "name": "tradeId",
          "type": "uint256"
        },
        {
          "internalType": "bool",
          "name": "favorBuyer",
          "type": "bool"
        }
      ],
      "name": "resolveDispute",
      "outputs": [],
      "stateMutability": "nonpayable",
      "type": "function"
    },
    {
      "inputs": [],
      "name": "tradeCount",
      "outputs": [
        {
          "internalType": "uint256",
          "name": "",
          "type": "uint256"
        }
      ],
      "stateMutability": "view",
      "type": "function"
    },
    {
      "inputs": [
        {
          "internalType": "uint256",
          "name": "",
          "type": "uint256"
        }
      ],
      "name": "trades",
      "outputs": [
        {
          "internalType": "address",
          "name": "buyer",
          "type": "address"
        },
        {
          "internalType": "address",
          "name": "seller",
          "type": "address"
        },
        {
          "internalType": "uint256",
          "name": "amountUSDC",
          "type": "uint256"
        },
        {
          "internalType": "string",
          "name": "cardName",
          "type": "string"
        },
        {
          "internalType": "string",
          "name": "listingId",
          "type": "string"
        },
        {
          "internalType": "uint256",
          "name": "fundedAt",
          "type": "uint256"
        },
        {
          "internalType": "uint256",
          "name": "deadline",
          "type": "uint256"
        },
        {
          "internalType": "enum CardEscrow.State",
          "name": "state",
          "type": "uint8"
        },
        {
          "internalType": "string",
          "name": "txNote",
          "type": "string"
        }
      ],
      "stateMutability": "view",
      "type": "function"
    },
    {
      "inputs": [],
      "name": "usdc",
      "outputs": [
        {
          "internalType": "contract IERC20",
          "name": "",
          "type": "address"
        }
      ],
      "stateMutability": "view",
      "type": "function"
    }
  ],
  "bytecode": "0x60c06040523480156200001157600080fd5b506040516200330f3803806200330f833981810160405281019062000037919062000111565b8173ffffffffffffffffffffffffffffffffffffffff1660808173ffffffffffffffffffffffffffffffffffffffff16815250508073ffffffffffffffffffffffffffffffffffffffff1660a08173ffffffffffffffffffffffffffffffffffffffff1681525050505062000158565b600080fd5b600073ffffffffffffffffffffffffffffffffffffffff82169050919050565b6000620000d982620000ac565b9050919050565b620000eb81620000cc565b8114620000f757600080fd5b50565b6000815190506200010b81620000e0565b92915050565b600080604083850312156200012b576200012a620000a7565b5b60006200013b85828601620000fa565b92505060206200014e85828601620000fa565b9150509250929050565b60805160a051613160620001af60003960008181610c0d015281816114940152611a4b015260008181610d5c01528181610fb4015281816113520152818161164f0152818161194c0152611a0f01526131606000f3fe608060405234801561001057600080fd5b50600436106100f55760003560e01c8063459b860e11610097578063843cba1311610066578063843cba1314610278578063a3031b7714610294578063bd55022a146102b2578063bf333f2c146102d0576100f5565b8063459b860e146102045780634bde38c8146102205780635b7baf641461023e57806367d3b60f1461025a576100f5565b80632db25e05116100d35780632db25e051461016a57806334b25ee21461019a57806336ea1d67146101b65780633e413bee146101e6576100f5565b80631e6c598e146100fa57806327d00fb0146101325780632cef65751461014e575b600080fd5b610114600480360381019061010f9190611bd6565b6102ee565b60405161012999989796959493929190611d5a565b60405180910390f35b61014c60048036038101906101479190611bd6565b610521565b005b61016860048036038101906101639190611e61565b61073a565b005b610184600480360381019061017f9190611bd6565b610922565b604051610191919061200b565b60405180910390f35b6101b460048036038101906101af9190612065565b610c0b565b005b6101d060048036038101906101cb91906120d1565b610e8f565b6040516101dd9190612178565b60405180910390f35b6101ee611350565b6040516101fb91906121f2565b60405180910390f35b61021e60048036038101906102199190611bd6565b611374565b005b610228611492565b604051610235919061220d565b60405180910390f35b61025860048036038101906102539190611bd6565b6114b6565b005b610262611787565b60405161026f9190612178565b60405180910390f35b610292600480360381019061028d9190611bd6565b61178e565b005b61029c6118e9565b6040516102a99190612178565b60405180910390f35b6102ba6118f2565b6040516102c79190612178565b60405180910390f35b6102d86118f8565b6040516102e59190612178565b60405180910390f35b60016020528060005260406000206000915090508060000160009054906101000a900473ffffffffffffffffffffffffffffffffffffffff16908060010160009054906101000a900473ffffffffffffffffffffffffffffffffffffffff169080600201549080600301805461036390612257565b80601f016020809104026020016040519081016040528092919081815260200182805461038f90612257565b80156103dc5780601f106103b1576101008083540402835291602001916103dc565b820191906000526020600020905b8154815290600101906020018083116103bf57829003601f168201915b5050505050908060040180546103f190612257565b80601f016020809104026020016040519081016040528092919081815260200182805461041d90612257565b801561046a5780601f1061043f5761010080835404028352916020019161046a565b820191906000526020600020905b81548152906001019060200180831161044d57829003601f168201915b5050505050908060050154908060060154908060070160009054906101000a900460ff169080600801805461049e90612257565b80601f01602080910402602001604051908101604052809291908181526020018280546104ca90612257565b80156105175780601f106104ec57610100808354040283529160200191610517565b820191906000526020600020905b8154815290600101906020018083116104fa57829003601f168201915b5050505050905089565b60006001600083815260200190815260200160002090506001600581111561054c5761054b611ce3565b5b8160070160009054906101000a900460ff1660058111156105705761056f611ce3565b5b14806105b157506002600581111561058b5761058a611ce3565b5b8160070160009054906101000a900460ff1660058111156105af576105ae611ce3565b5b145b6105f0576040517f08c379a00000000000000000000000000000000000000000000000000000000081526004016105e7906122d4565b60405180910390fd5b8060000160009054906101000a900473ffffffffffffffffffffffffffffffffffffffff1673ffffffffffffffffffffffffffffffffffffffff163373ffffffffffffffffffffffffffffffffffffffff16148061069d57508060010160009054906101000a900473ffffffffffffffffffffffffffffffffffffffff1673ffffffffffffffffffffffffffffffffffffffff163373ffffffffffffffffffffffffffffffffffffffff16145b6106dc576040517f08c379a00000000000000000000000000000000000000000000000000000000081526004016106d390612340565b60405180910390fd5b60058160070160006101000a81548160ff0219169083600581111561070457610703611ce3565b5b0217905550817f995328816eb12e50ec2691560298922cd9ead6191e59874ef2ef6ca8c766d72560405160405180910390a25050565b60006001600085815260200190815260200160002090506001600581111561076557610764611ce3565b5b8160070160009054906101000a900460ff16600581111561078957610788611ce3565b5b146107c9576040517f08c379a00000000000000000000000000000000000000000000000000000000081526004016107c0906123ac565b60405180910390fd5b8060010160009054906101000a900473ffffffffffffffffffffffffffffffffffffffff1673ffffffffffffffffffffffffffffffffffffffff163373ffffffffffffffffffffffffffffffffffffffff161461085b576040517f08c379a000000000000000000000000000000000000000000000000000000000815260040161085290612418565b60405180910390fd5b806006015442106108a1576040517f08c379a000000000000000000000000000000000000000000000000000000000815260040161089890612484565b60405180910390fd5b60028160070160006101000a81548160ff021916908360058111156108c9576108c8611ce3565b5b021790555082828260080191826108e1929190612680565b50837f9fb5149bbb315eb3833416c73ffcd50c41c7061695b531021537566fcc9b5b90848460405161091492919061278c565b60405180910390a250505050565b61092a611b0c565b60016000838152602001908152602001600020604051806101200160405290816000820160009054906101000a900473ffffffffffffffffffffffffffffffffffffffff1673ffffffffffffffffffffffffffffffffffffffff1673ffffffffffffffffffffffffffffffffffffffff1681526020016001820160009054906101000a900473ffffffffffffffffffffffffffffffffffffffff1673ffffffffffffffffffffffffffffffffffffffff1673ffffffffffffffffffffffffffffffffffffffff16815260200160028201548152602001600382018054610a0f90612257565b80601f0160208091040260200160405190810160405280929190818152602001828054610a3b90612257565b8015610a885780601f10610a5d57610100808354040283529160200191610a88565b820191906000526020600020905b815481529060010190602001808311610a6b57829003601f168201915b50505050508152602001600482018054610aa190612257565b80601f0160208091040260200160405190810160405280929190818152602001828054610acd90612257565b8015610b1a5780601f10610aef57610100808354040283529160200191610b1a565b820191906000526020600020905b815481529060010190602001808311610afd57829003601f168201915b5050505050815260200160058201548152602001600682015481526020016007820160009054906101000a900460ff166005811115610b5c57610b5b611ce3565b5b6005811115610b6e57610b6d611ce3565b5b8152602001600882018054610b8290612257565b80601f0160208091040260200160405190810160405280929190818152602001828054610bae90612257565b8015610bfb5780601f10610bd057610100808354040283529160200191610bfb565b820191906000526020600020905b815481529060010190602001808311610bde57829003601f168201915b5050505050815250509050919050565b7f000000000000000000000000000000000000000000000000000000000000000073ffffffffffffffffffffffffffffffffffffffff163373ffffffffffffffffffffffffffffffffffffffff1614610c99576040517f08c379a0000000000000000000000000000000000000000000000000000000008152600401610c90906127fc565b60405180910390fd5b6000600160008481526020019081526020016000209050600580811115610cc357610cc2611ce3565b5b8160070160009054906101000a900460ff166005811115610ce757610ce6611ce3565b5b14610d27576040517f08c379a0000000000000000000000000000000000000000000000000000000008152600401610d1e90612868565b60405180910390fd5b8115610e535760048160070160006101000a81548160ff02191690836005811115610d5557610d54611ce3565b5b02179055507f000000000000000000000000000000000000000000000000000000000000000073ffffffffffffffffffffffffffffffffffffffff1663a9059cbb8260000160009054906101000a900473ffffffffffffffffffffffffffffffffffffffff1683600201546040518363ffffffff1660e01b8152600401610ddd929190612888565b6020604051808303816000875af1158015610dfc573d6000803e3d6000fd5b505050506040513d601f19601f82011682018060405250810190610e2091906128c6565b50827f90efc0e09d27ee22d367486717a0d52c094630ad5011bc98fa942fe2b2246ada60405160405180910390a2610e8a565b60038160070160006101000a81548160ff02191690836005811115610e7b57610e7a611ce3565b5b0217905550610e89836118fd565b5b505050565b60008073ffffffffffffffffffffffffffffffffffffffff168773ffffffffffffffffffffffffffffffffffffffff1603610eff576040517f08c379a0000000000000000000000000000000000000000000000000000000008152600401610ef69061293f565b60405180910390fd5b3373ffffffffffffffffffffffffffffffffffffffff168773ffffffffffffffffffffffffffffffffffffffff1603610f6d576040517f08c379a0000000000000000000000000000000000000000000000000000000008152600401610f64906129ab565b60405180910390fd5b60008611610fb0576040517f08c379a0000000000000000000000000000000000000000000000000000000008152600401610fa790612a17565b60405180910390fd5b60007f000000000000000000000000000000000000000000000000000000000000000073ffffffffffffffffffffffffffffffffffffffff166323b872dd33308a6040518463ffffffff1660e01b815260040161100f93929190612a37565b6020604051808303816000875af115801561102e573d6000803e3d6000fd5b505050506040513d601f19601f8201168201806040525081019061105291906128c6565b905080611094576040517f08c379a000000000000000000000000000000000000000000000000000000000815260040161108b90612aba565b60405180910390fd5b6000808154809291906110a690612b09565b9190505591506040518061012001604052803373ffffffffffffffffffffffffffffffffffffffff1681526020018973ffffffffffffffffffffffffffffffffffffffff16815260200188815260200187878080601f016020809104026020016040519081016040528093929190818152602001838380828437600081840152601f19601f82011690508083019250505050505050815260200185858080601f016020809104026020016040519081016040528093929190818152602001838380828437600081840152601f19601f82011690508083019250505050505050815260200142815260200162093a804261119f9190612b51565b8152602001600160058111156111b8576111b7611ce3565b5b8152602001604051806020016040528060008152508152506001600084815260200190815260200160002060008201518160000160006101000a81548173ffffffffffffffffffffffffffffffffffffffff021916908373ffffffffffffffffffffffffffffffffffffffff16021790555060208201518160010160006101000a81548173ffffffffffffffffffffffffffffffffffffffff021916908373ffffffffffffffffffffffffffffffffffffffff1602179055506040820151816002015560608201518160030190816112909190612b85565b5060808201518160040190816112a69190612b85565b5060a0820151816005015560c0820151816006015560e08201518160070160006101000a81548160ff021916908360058111156112e6576112e5611ce3565b5b02179055506101008201518160080190816113019190612b85565b50905050817fc165b03ec94bba76e5ecfc5253583d85bc4a9e1523f93fe52f529de07f61bb92338a8a8a8a60405161133d959493929190612c57565b60405180910390a2509695505050505050565b7f000000000000000000000000000000000000000000000000000000000000000081565b60006001600083815260200190815260200160002090506002600581111561139f5761139e611ce3565b5b8160070160009054906101000a900460ff1660058111156113c3576113c2611ce3565b5b14611403576040517f08c379a00000000000000000000000000000000000000000000000000000000081526004016113fa90612cf1565b60405180910390fd5b6203f48081600601546114169190612b51565b421015611458576040517f08c379a000000000000000000000000000000000000000000000000000000000815260040161144f90612d83565b60405180910390fd5b60038160070160006101000a81548160ff021916908360058111156114805761147f611ce3565b5b021790555061148e826118fd565b5050565b7f000000000000000000000000000000000000000000000000000000000000000081565b6000600160008381526020019081526020016000209050600160058111156114e1576114e0611ce3565b5b8160070160009054906101000a900460ff16600581111561150557611504611ce3565b5b14611545576040517f08c379a000000000000000000000000000000000000000000000000000000000815260040161153c90612def565b60405180910390fd5b8060000160009054906101000a900473ffffffffffffffffffffffffffffffffffffffff1673ffffffffffffffffffffffffffffffffffffffff163373ffffffffffffffffffffffffffffffffffffffff16146115d7576040517f08c379a00000000000000000000000000000000000000000000000000000000081526004016115ce90612e5b565b60405180910390fd5b806006015442101561161e576040517f08c379a000000000000000000000000000000000000000000000000000000000815260040161161590612ec7565b60405180910390fd5b60048160070160006101000a81548160ff0219169083600581111561164657611645611ce3565b5b021790555060007f000000000000000000000000000000000000000000000000000000000000000073ffffffffffffffffffffffffffffffffffffffff1663a9059cbb8360000160009054906101000a900473ffffffffffffffffffffffffffffffffffffffff1684600201546040518363ffffffff1660e01b81526004016116d0929190612888565b6020604051808303816000875af11580156116ef573d6000803e3d6000fd5b505050506040513d601f19601f8201168201806040525081019061171391906128c6565b905080611755576040517f08c379a000000000000000000000000000000000000000000000000000000000815260040161174c90612f33565b60405180910390fd5b827f90efc0e09d27ee22d367486717a0d52c094630ad5011bc98fa942fe2b2246ada60405160405180910390a2505050565b62093a8081565b6000600160008381526020019081526020016000209050600260058111156117b9576117b8611ce3565b5b8160070160009054906101000a900460ff1660058111156117dd576117dc611ce3565b5b1461181d576040517f08c379a000000000000000000000000000000000000000000000000000000000815260040161181490612f9f565b60405180910390fd5b8060000160009054906101000a900473ffffffffffffffffffffffffffffffffffffffff1673ffffffffffffffffffffffffffffffffffffffff163373ffffffffffffffffffffffffffffffffffffffff16146118af576040517f08c379a00000000000000000000000000000000000000000000000000000000081526004016118a69061300b565b60405180910390fd5b60038160070160006101000a81548160ff021916908360058111156118d7576118d6611ce3565b5b02179055506118e5826118fd565b5050565b60008054905090565b60005481565b60fa81565b6000600160008381526020019081526020016000209050600061271060fa836002015461192a919061302b565b611934919061309c565b9050600081836002015461194891906130cd565b90507f000000000000000000000000000000000000000000000000000000000000000073ffffffffffffffffffffffffffffffffffffffff1663a9059cbb8460010160009054906101000a900473ffffffffffffffffffffffffffffffffffffffff16836040518363ffffffff1660e01b81526004016119c9929190612888565b6020604051808303816000875af11580156119e8573d6000803e3d6000fd5b505050506040513d601f19601f82011682018060405250810190611a0c91906128c6565b507f000000000000000000000000000000000000000000000000000000000000000073ffffffffffffffffffffffffffffffffffffffff1663a9059cbb7f0000000000000000000000000000000000000000000000000000000000000000846040518363ffffffff1660e01b8152600401611a88929190612888565b6020604051808303816000875af1158015611aa7573d6000803e3d6000fd5b505050506040513d601f19601f82011682018060405250810190611acb91906128c6565b50837f50e2ce05f3168228f93a39f15627b14d64aa6fdbc79ce8287c47e9fcad9242e58284604051611afe929190613101565b60405180910390a250505050565b604051806101200160405280600073ffffffffffffffffffffffffffffffffffffffff168152602001600073ffffffffffffffffffffffffffffffffffffffff168152602001600081526020016060815260200160608152602001600081526020016000815260200160006005811115611b8957611b88611ce3565b5b8152602001606081525090565b600080fd5b600080fd5b6000819050919050565b611bb381611ba0565b8114611bbe57600080fd5b50565b600081359050611bd081611baa565b92915050565b600060208284031215611bec57611beb611b96565b5b6000611bfa84828501611bc1565b91505092915050565b600073ffffffffffffffffffffffffffffffffffffffff82169050919050565b6000611c2e82611c03565b9050919050565b611c3e81611c23565b82525050565b611c4d81611ba0565b82525050565b600081519050919050565b600082825260208201905092915050565b60005b83811015611c8d578082015181840152602081019050611c72565b60008484015250505050565b6000601f19601f8301169050919050565b6000611cb582611c53565b611cbf8185611c5e565b9350611ccf818560208601611c6f565b611cd881611c99565b840191505092915050565b7f4e487b7100000000000000000000000000000000000000000000000000000000600052602160045260246000fd5b60068110611d2357611d22611ce3565b5b50565b6000819050611d3482611d12565b919050565b6000611d4482611d26565b9050919050565b611d5481611d39565b82525050565b600061012082019050611d70600083018c611c35565b611d7d602083018b611c35565b611d8a604083018a611c44565b8181036060830152611d9c8189611caa565b90508181036080830152611db08188611caa565b9050611dbf60a0830187611c44565b611dcc60c0830186611c44565b611dd960e0830185611d4b565b818103610100830152611dec8184611caa565b90509a9950505050505050505050565b600080fd5b600080fd5b600080fd5b60008083601f840112611e2157611e20611dfc565b5b8235905067ffffffffffffffff811115611e3e57611e3d611e01565b5b602083019150836001820283011115611e5a57611e59611e06565b5b9250929050565b600080600060408486031215611e7a57611e79611b96565b5b6000611e8886828701611bc1565b935050602084013567ffffffffffffffff811115611ea957611ea8611b9b565b5b611eb586828701611e0b565b92509250509250925092565b611eca81611c23565b82525050565b611ed981611ba0565b82525050565b600082825260208201905092915050565b6000611efb82611c53565b611f058185611edf565b9350611f15818560208601611c6f565b611f1e81611c99565b840191505092915050565b611f3281611d39565b82525050565b600061012083016000830151611f516000860182611ec1565b506020830151611f646020860182611ec1565b506040830151611f776040860182611ed0565b5060608301518482036060860152611f8f8282611ef0565b91505060808301518482036080860152611fa98282611ef0565b91505060a0830151611fbe60a0860182611ed0565b5060c0830151611fd160c0860182611ed0565b5060e0830151611fe460e0860182611f29565b50610100830151848203610100860152611ffe8282611ef0565b9150508091505092915050565b600060208201905081810360008301526120258184611f38565b905092915050565b60008115159050919050565b6120428161202d565b811461204d57600080fd5b50565b60008135905061205f81612039565b92915050565b6000806040838503121561207c5761207b611b96565b5b600061208a85828601611bc1565b925050602061209b85828601612050565b9150509250929050565b6120ae81611c23565b81146120b957600080fd5b50565b6000813590506120cb816120a5565b92915050565b600080600080600080608087890312156120ee576120ed611b96565b5b60006120fc89828a016120bc565b965050602061210d89828a01611bc1565b955050604087013567ffffffffffffffff81111561212e5761212d611b9b565b5b61213a89828a01611e0b565b9450945050606087013567ffffffffffffffff81111561215d5761215c611b9b565b5b61216989828a01611e0b565b92509250509295509295509295565b600060208201905061218d6000830184611c44565b92915050565b6000819050919050565b60006121b86121b36121ae84611c03565b612193565b611c03565b9050919050565b60006121ca8261219d565b9050919050565b60006121dc826121bf565b9050919050565b6121ec816121d1565b82525050565b600060208201905061220760008301846121e3565b92915050565b60006020820190506122226000830184611c35565b92915050565b7f4e487b7100000000000000000000000000000000000000000000000000000000600052602260045260246000fd5b6000600282049050600182168061226f57607f821691505b60208210810361228257612281612228565b5b50919050565b7f43616e6e6f74206469737075746520696e2063757272656e7420737461746500600082015250565b60006122be601f83611c5e565b91506122c982612288565b602082019050919050565b600060208201905081810360008301526122ed816122b1565b9050919050565b7f4f6e6c7920747261646520706172746965732063616e20646973707574650000600082015250565b600061232a601e83611c5e565b9150612335826122f4565b602082019050919050565b600060208201905081810360008301526123598161231d565b9050919050565b7f5472616465206e6f7420696e2046554e44454420737461746500000000000000600082015250565b6000612396601983611c5e565b91506123a182612360565b602082019050919050565b600060208201905081810360008301526123c581612389565b9050919050565b7f4f6e6c792073656c6c65722063616e20636f6e6669726d000000000000000000600082015250565b6000612402601783611c5e565b915061240d826123cc565b602082019050919050565b60006020820190508181036000830152612431816123f5565b9050919050565b7f457363726f772077696e646f7720657870697265640000000000000000000000600082015250565b600061246e601583611c5e565b915061247982612438565b602082019050919050565b6000602082019050818103600083015261249d81612461565b9050919050565b600082905092915050565b7f4e487b7100000000000000000000000000000000000000000000000000000000600052604160045260246000fd5b60008190508160005260206000209050919050565b60006020601f8301049050919050565b600082821b905092915050565b6000600883026125407fffffffffffffffffffffffffffffffffffffffffffffffffffffffffffffffff82612503565b61254a8683612503565b95508019841693508086168417925050509392505050565b600061257d61257861257384611ba0565b612193565b611ba0565b9050919050565b6000819050919050565b61259783612562565b6125ab6125a382612584565b848454612510565b825550505050565b600090565b6125c06125b3565b6125cb81848461258e565b505050565b5b818110156125ef576125e46000826125b8565b6001810190506125d1565b5050565b601f82111561263457612605816124de565b61260e846124f3565b8101602085101561261d578190505b612631612629856124f3565b8301826125d0565b50505b505050565b600082821c905092915050565b600061265760001984600802612639565b1980831691505092915050565b60006126708383612646565b9150826002028217905092915050565b61268a83836124a4565b67ffffffffffffffff8111156126a3576126a26124af565b5b6126ad8254612257565b6126b88282856125f3565b6000601f8311600181146126e757600084156126d5578287013590505b6126df8582612664565b865550612747565b601f1984166126f5866124de565b60005b8281101561271d578489013582556001820191506020850194506020810190506126f8565b8683101561273a5784890135612736601f891682612646565b8355505b6001600288020188555050505b50505050505050565b82818337600083830152505050565b600061276b8385611c5e565b9350612778838584612750565b61278183611c99565b840190509392505050565b600060208201905081810360008301526127a781848661275f565b90509392505050565b7f4f6e6c7920706c6174666f726d2063616e207265736f6c766500000000000000600082015250565b60006127e6601983611c5e565b91506127f1826127b0565b602082019050919050565b60006020820190508181036000830152612815816127d9565b9050919050565b7f4e6f742064697370757465640000000000000000000000000000000000000000600082015250565b6000612852600c83611c5e565b915061285d8261281c565b602082019050919050565b6000602082019050818103600083015261288181612845565b9050919050565b600060408201905061289d6000830185611c35565b6128aa6020830184611c44565b9392505050565b6000815190506128c081612039565b92915050565b6000602082840312156128dc576128db611b96565b5b60006128ea848285016128b1565b91505092915050565b7f496e76616c69642073656c6c6572000000000000000000000000000000000000600082015250565b6000612929600e83611c5e565b9150612934826128f3565b602082019050919050565b600060208201905081810360008301526129588161291c565b9050919050565b7f43616e6e6f74206275792066726f6d20796f757273656c660000000000000000600082015250565b6000612995601883611c5e565b91506129a08261295f565b602082019050919050565b600060208201905081810360008301526129c481612988565b9050919050565b7f416d6f756e74206d757374206265203e20300000000000000000000000000000600082015250565b6000612a01601283611c5e565b9150612a0c826129cb565b602082019050919050565b60006020820190508181036000830152612a30816129f4565b9050919050565b6000606082019050612a4c6000830186611c35565b612a596020830185611c35565b612a666040830184611c44565b949350505050565b7f55534443207472616e73666572206661696c6564000000000000000000000000600082015250565b6000612aa4601483611c5e565b9150612aaf82612a6e565b602082019050919050565b60006020820190508181036000830152612ad381612a97565b9050919050565b7f4e487b7100000000000000000000000000000000000000000000000000000000600052601160045260246000fd5b6000612b1482611ba0565b91507fffffffffffffffffffffffffffffffffffffffffffffffffffffffffffffffff8203612b4657612b45612ada565b5b600182019050919050565b6000612b5c82611ba0565b9150612b6783611ba0565b9250828201905080821115612b7f57612b7e612ada565b5b92915050565b612b8e82611c53565b67ffffffffffffffff811115612ba757612ba66124af565b5b612bb18254612257565b612bbc8282856125f3565b600060209050601f831160018114612bef5760008415612bdd578287015190505b612be78582612664565b865550612c4f565b601f198416612bfd866124de565b60005b82811015612c2557848901518255600182019150602085019450602081019050612c00565b86831015612c425784890151612c3e601f891682612646565b8355505b6001600288020188555050505b505050505050565b6000608082019050612c6c6000830188611c35565b612c796020830187611c35565b612c866040830186611c44565b8181036060830152612c9981848661275f565b90509695505050505050565b7f4e6f7420696e2053484950504544207374617465000000000000000000000000600082015250565b6000612cdb601483611c5e565b9150612ce682612ca5565b602082019050919050565b60006020820190508181036000830152612d0a81612cce565b9050919050565b7f57616974203320646179732061667465722073686970206265666f726520617560008201527f746f2d72656c6561736500000000000000000000000000000000000000000000602082015250565b6000612d6d602a83611c5e565b9150612d7882612d11565b604082019050919050565b60006020820190508181036000830152612d9c81612d60565b9050919050565b7f4e6f7420696e2046554e44454420737461746500000000000000000000000000600082015250565b6000612dd9601383611c5e565b9150612de482612da3565b602082019050919050565b60006020820190508181036000830152612e0881612dcc565b9050919050565b7f4f6e6c792062757965722063616e20636c61696d20726566756e640000000000600082015250565b6000612e45601b83611c5e565b9150612e5082612e0f565b602082019050919050565b60006020820190508181036000830152612e7481612e38565b9050919050565b7f457363726f772077696e646f77206e6f74206578706972656420796574000000600082015250565b6000612eb1601d83611c5e565b9150612ebc82612e7b565b602082019050919050565b60006020820190508181036000830152612ee081612ea4565b9050919050565b7f526566756e64207472616e73666572206661696c656400000000000000000000600082015250565b6000612f1d601683611c5e565b9150612f2882612ee7565b602082019050919050565b60006020820190508181036000830152612f4c81612f10565b9050919050565b7f43617264206e6f7420796574206d61726b656420736869707065640000000000600082015250565b6000612f89601b83611c5e565b9150612f9482612f53565b602082019050919050565b60006020820190508181036000830152612fb881612f7c565b9050919050565b7f4f6e6c792062757965722063616e20636f6e6669726d20726563656970740000600082015250565b6000612ff5601e83611c5e565b915061300082612fbf565b602082019050919050565b6000602082019050818103600083015261302481612fe8565b9050919050565b600061303682611ba0565b915061304183611ba0565b925082820261304f81611ba0565b9150828204841483151761306657613065612ada565b5b5092915050565b7f4e487b7100000000000000000000000000000000000000000000000000000000600052601260045260246000fd5b60006130a782611ba0565b91506130b283611ba0565b9250826130c2576130c161306d565b5b828204905092915050565b60006130d882611ba0565b91506130e383611ba0565b92508282039050818111156130fb576130fa612ada565b5b92915050565b60006040820190506131166000830185611c44565b6131236020830184611c44565b939250505056fea2646970667358221220d31f212cd5cbbc993913cf94d9bb295c435ce17d383431c33951b14595fd347e64736f6c63430008140033",
  "linkReferences": {},
  "deployedLinkReferences": {}
}